:020000040000FA
:06000000BAEF0FF0120040
:0600080004EF08F01200F5
:060018000CEF08F01200DD
:06100000BAEF0FF0120030
:0610080077EF0DF012006D
:0610180079EF0DF012005B
:06102A000100A01F000000
:08103000A10000000300000014
:08103800E1EC0CF06A6A686A41
:101040009F0E6B6EFB0E696E6D8C6D9C6E6AC5ECAF
:101050000CF0DF6AF2EC0CF010E2DF50040DF3CF7D
:10106000E9FFF4CFEAFF000EE926040EEA22EE6A59
:10107000EE6AEE6AEE6ADF2AEDD7160E706E68A68B
:1010800004D0030E87EC0CF0FAD70001736B786B79
:10109000796B7A6B6D98080E6B6F040E6C6F616BD9
:1010A000606BE4EF0CF0E1EC0CF0000160510BE13F
:1010B0006D6A696A6DB602D06D86FCD70001010EBB
:1010C000606F160E6F6E600508E16DBA06D0686A33
:1010D000696A69806988020E606F6850040B04E0D9
:1010E0006950040B01E064D86DB249D06850010B1F
:1010F00011E06950010B0EE09FDF0001040E606FEC
:101100000401200E026F040E036F080E016F006BC6
:101110008C0E00136850100B04E06950100B01E0B6
:1011200041D86850400B08E06950400B05E036ECB0
:101130000EF0060E87EC0CF06850200B04E06950AE
:10114000200B01E01ED86850020B06E06950020B2C
:1011500003E037EC0EF06A6A040E0001605D0FE3F5
:1011600069A60DD0DF6A040EDF5C09E268A607D02D
:101170006CCF80F0030ECBDB25D8DF2AF4D7E4EF69
:101180000CF070A00CD0EADBEF50800807E1C9DB5F
:10119000EF50840803E1E2DB8C0EEF6E7090050ED9
:1011A00087EF0CF06984040EB2DB6D8234EF0EF031
:1011B0006D9235EC0EF0699468A403D0020EA7DBA3
:1011C000FBD71200FD0E0001801519E17E0E80157F
:1011D000E8407F0B040DF3CF63F0F4CF64F0000E12
:1011E0006327040E642363C065F064C066F0657510
:1011F00051EC0DF002E105EF09F016EF09F0FD0EDC
:101200008015040801E11AD812008BDBEF50800B27
:1012100002E087DBEF6A00016F6B706B746B756BBC
:10122000736B90D838EC0EF0CDEF0AF0020E00018F
:10123000705D02E157EF0BF04AEF09F0C2DB71DBA2
:10124000EF50400B01E0010EDF6E00016B75080EE0
:10125000605D09E122C46EFF6E50000802E2100ECC
:1012600001D0040E606F700513E143EC0DF0CDD991
:10127000020E00016F5D03E154DB840E07D0DF50E6
:1012800003E14FDBC80E02D04CDB880EEF6E01D0BD
:1012900001D89AD33EEC0DF0030EE126020E0001B8
:1012A000705D26E16D50100B23E058DBEE52EF50DD
:1012B000006E016A080E00181BE1015019E151ECA3
:1012C0000DF016E1BCDBEF50800B12E1B8DBCADB9E
:1012D000DF6A88DB22E2DF508DDBDF50EA6A200F15
:1012E000E96E040EEA22E552E750EF6EDF2AF1D7ED
:1012F000706BBEDBEF6A040E6B19006E6CC001F000
:10130000010E00C0DBFF020E6CC0DBFF010EDBCF65
:10131000E9FF020EDBCFEAFFEF6A000178AF0CD0E5
:101320007B517C1107E005D07CC0FAFF00017B51A6
:10133000F96EFADF0001789F030EE15C02E2E16AD8
:10134000E552FDD204012051600BE842E842E84238
:10135000E842E842000901E0120021510C0A43E092
:101360000B0A3FE00C0A31E0010A22E00B0A1EE002
:10137000020A1CE0030A18E0080A10E0010A0CE067
:101380000F0A08E0030A01E012000001738F080E43
:10139000606F120054EF0AF0B0EF0BF00001610E25
:1013A000716F000E726F0CD08FEF0AF0F4EF09F03E
:1013B00024510001716F726B620E7127000E72234F
:1013C0007381010E746F738F12000001738F04011B
:1013D0002451EA6A620FE96E000EEA2222C4EFFF8E
:1013E00012003AEF0EF0120049DB040EE126040170
:1013F000220510E120511F0B00090CE10001738F41
:10140000030E0401215D04E10001010E7F6F02D093
:1014100000017F6B0401225141E120511F0B0208A2
:101420003DE124510F0B000939E00001738F0401E5
:1014300024BF05D098DA670EE926000E04D093DAAF
:101440006B0EE926000EC2DA030E215D03E16EDAAF
:10145000840E23D024510F0B016A700F006E0F0E03
:101460000122020E00C0DBFF030E01C0DBFF020EF3
:10147000DBCFE9FF030EDBCFEAFFEE90ED5224AFA6
:1014800006D054DAEF6ADF7451DA400E06D04EDA35
:10149000880EEF6EDF744ADAC80EEF6E040EE15C60
:1014A00002E2E16AE5524BD2800E0401205D36E192
:1014B0000001C00E736F04012351030A1EE0010AEC
:1014C00009E0030A29E10001E40E716F1C0E726F3E
:1014D000120E1FD0A6DABD0EF6261D0E93DA020EEE
:1014E0000001F76A7125F66E7251F7220900F5CFF7
:1014F00074F00A00F5CF75F0120093DABF0EF626ED
:101500001D0E80DA71C0F6FF72C0F7FF0800F550BB
:101510000001746F756B12000001736B12000BDA1F
:101520000401286B296B20511F0B020A11E0030AEA
:101530000CE0010A22E10001738F040128810001FF
:101540007F051BE10401288318D00001738F15D09B
:101550000001738F040124BF05D005DA670EE92668
:10156000000E04D000DA6B0EE926000E2FDADED969
:10157000EF50040B02E0010E286F000173AF07D09B
:10158000280E716F040E726F7381020E746F020E5B
:10159000E15C02E2E16AE552D2D16D98000173BFCD
:1015A00007D078AF02D093DA28D062DA840E26D042
:1015B00078BF2AD0040120AF23D000017451040168
:1015C000265D000175510401275904E226C474F018
:1015D00027C475F01AD80001010E706F91D9B8D9DF
:1015E000800EEF6EBBD9EE52080EEF6EB7D93ADA25
:1015F000B5D9800EEF6E47DA94D9C80EEF6E12009F
:10160000000165DAC80EEF6E120095D90001080ED0
:10161000745D000E75590DE274C0DEFF75C0DDFF0C
:101620006F5102E1010E03D06F0506E1020E6F6FEC
:1016300003D0080EDE6EDD6A74D9EF9272D9EF9096
:1016400070D9010EDB50EF126CD9EE52DFCFEFFFF5
:10165000000EDB50745F010EDB50755B280E7D6F52
:10166000040E7E6F73B10FD0E3D91BE071C0F6FF9B
:1016700072C0F7FF712B000E72230800F5508ED94F
:10168000F3E2DB06F1D7D4D90CE071C0E9FF72C0F8
:10169000EAFF712B000E7223EF5080D9F4E2DB06D3
:1016A000F2D7020EE15C02E2E16AE55248D143D989
:1016B00055D9EE52EFCFDFFFDFCF00F00050000131
:1016C000795D000E7A5903E279C0DFFF09D0DF505F
:1016D000006E016AE850795D796F01507A597A6F2E
:1016E000010EDB6ADF50F36E010EDBCFF4FFF35027
:1016F000F45C10E2010EDB507DD976C0E9FF77C0C3
:10170000EAFF762B000E7723E552E750EF6E010ECD
:10171000DB2AE8D7000ED8807955000E7A550CE206
:10172000CFD91CD9EF50400B03E189D9C80E02D0A4
:1017300086D9880EEF6E0ED082D994D97B517C1158
:1017400007E005D07CC0FAFF00017B51F96EFADF9B
:101750000001789F020EE15C02E2E16AE552EFD0FF
:101760000001738F12D9010EE66EE66AE66A620E18
:10177000E66E000E9DD922C461F00401225104E1FD
:101780000001100E606F12000001200E606F3BEF31
:101790000EF0D1D8000EDE6E040EDD6EECD8040D16
:1017A000F350006E016A020E0F0B05E0D890013273
:1017B0000032E806FBE1D89000360136D8900036BA
:1017C0000136D9CFE9FFDACFEAFF0050EE2601500B
:1017D000ED22ACD8EF9EFD0EDB5002E158D901D0CE
:1017E0005BD9EA22DECFEEFFDDCFEDFF9FD8EF9C85
:1017F0009DD8040EE926000EEA22EF8C020EE15C71
:1018000002E2E16AE5529BD096D8FE0EDB50016AF7
:10181000700F006E0F0EE0D8FD0EDB50E66E86D81E
:10182000E552E750EE6EED6AFD0EDBA402D0E66AEB
:10183000F1D8FD0EDBA203D0010EE66EEBD8020E4E
:10184000E15C02E2E16AE5527AD075D8FE0EDB5027
:1018500004E10ED9840EEF6E05D08DD8F5D88BD863
:10186000010FF2D8020EE15C02E2E16AE55267D0B4
:1018700062D8FD0EDB5002E00FD901D008D9A6D8FE
:1018800055D830D9FB0EDBCFEEFFFC0EDBCFEDFFE2
:101890004DD8EE52FA0EDBCFEFFF400E47D8E8509E
:1018A000EF16880E43D8E850EF12FD0EDB5002E031
:1018B000F3D801D0ECD8EA22EF74DECF00F0DDCF10
:1018C00001F000C0F3FF01C0F4FF020EE15C02E290
:1018D000E16AE55234D0D2D8010EF36EFC0EDB5033
:1018E00004E0D890F336E806FCE1F31C006EFD0E30
:1018F000DBCFE9FFFE0EDBCFEAFF0050EF16E3D0AF
:101900009ED8EE52080EEF6E9AD872EF0DF0E66E8A
:10191000680EE66E0F0EE66EDEDFE552E552E5522A
:1019200012006BC0E9FF6CC0EAFF1200DECFE9FFD6
:10193000DDCFEAFF1200A2D8020EE1261200E16E0E
:10194000C2D0FE0EEA6ADB34FE0BEA36E96E120004
:10195000200EEE6E040EED6E1FEF0DF063C0E9FF7A
:1019600064C0EAFF120024510F0BE96EEA6AD890B6
:10197000E936EA361200FD0EDB50E824026EFE0E58
:10198000DB50040DF35002241200000EE66EE66AEE
:10199000E66A710EE66E0F0E58EF0DF0E66E7DC032
:1019A000E9FF7EC0EAFF7D2B000E7E23E552E75063
:1019B000EF6EDF06010E1200280EEE6E040EED6EC5
:1019C00012005CD8E6521200E5527DD0EA22EECF3A
:1019D000DEFFEDCFDDFF1200012200C0DEFF01C0FF
:1019E000DDFF1200DF50006E016A080E005C000E81
:1019F00001581200EA6A280FE96E040EEA22EF503D
:101A0000E66E1200F7220900F5CF71F00A00F5CF5B
:101A100072F01200FE0EDBCFE6FFBBDEE552E552B0
:101A200012002251F66EF76AD890F636F736120099
:101A3000D9CFE9FFDACFEAFFEE50ED10120065C012
:101A4000E9FF66C0EAFF1200040DF3CF00F0F4CF07
:101A500001F0000E0026040EBFDF840E67DFE850A1
:101A6000EF1212003FD8200EEE6E040EED6E120043
:101A700047DF6EDF8C0EEF6E91EF0CF0D9CFE6FFF3
:101A8000E1CFD9FF12004DDF2DD8DCEF0CF059DF8C
:101A9000670EE926000E120054DF6B0EE926000ED9
:101AA00012005CDFEF503C0BE842E8420D081200E8
:101AB000E66EA0EC0FF0006E050EE15E0050120025
:101AC0001FDFDCEF0CF0E552E7CFD9FF1200020E6A
:101AD000706F27DFEE52EF6A24DFC80EEF6EF0DF83
:0E1AE0001FEF0DF0020EE926000EEA221200A2
:021AEE00F3D82B
:101AF0001100D8CFE4FFE0CFE4FFE46EECD8E5506E
:101B0000E5CFE0FFE5CFD8FF100004D853EC08F094
:101B10001AD8FCD70F0EC1121CEC08F090EF0DF094
:101B2000F00E8C1695169388938A8150100B01E065
:101B3000010E0001856F8150200B01E0010E866FC0
:101B40008F6B906B120051D8200E0001605D05E391
:101B50006D50020B01E0120001D8120000018F51FC
:101B6000901102E1000E08D08FC0E9FF90C0EAFF9B
:101B7000EF50800B01E0010E000918E118D80009B0
:101B800010E00401336B346B0001A151A12B04015F
:101B9000356F88D8280E0001A15D08E1040EA16F01
:101BA00012000401336B346B356B7CD8120081500A
:101BB000100B01E0010E0001855D07E08150100B64
:101BC00001E0010E856F81A8010C000C8150200BF3
:101BD00001E0010E0001865D07E08150200B01E06D
:101BE000010E866F81AA010C000C0001A251A31105
:101BF00004E1100EA26F270EA36FA207000EA35BD5
:101C00006DA207D0A251A3112EE18C708CB013D01D
:101C100027D00001605102E18C9022D0600502E1E2
:101C20008C8009D0020E605D02E18C8019D0040E18
:101C3000605D03E18C908C821200100E605D06E105
:101C40000001A251A3110FE18C700AD0200E605D3B
:101C50000AE10001A251A31106E18C708CA002D010
:101C60008C9212008C8212001200120012001200DC
:101C7000E3EF0EF012001A0EE66E010EE66E04ECB3
:101C80000CF0E552E55212006D840001080E926FCF
:101C9000070E936F9207000E935B92519311FAE136
:101CA0006D941200366B376B386B396B3A6B080EDC
:101CB000E66E330EE66E040EE66E010EE66EE66E1E
:101CC00038EC0CF0006E050EE15E0050F3CF8FF0A3
:101CD000F4CF90F01200DACFE4FFE652E552E5CF00
:041CE000DAFF120015
:0C1CE4001201000200000008D8045500A6
:101CF00001000102000109022200010100C03209B5
:101D00000400000103010100092111010001223F2B
:101D100000070581030800010403090434034D0092
:101D20006900630072006F00630068006900700062
:101D3000200054006500630068006E006F006C00B6
:101D40006F0067007900200049006E0063002E00DC
:101D50002E034B006500790062006F006100720085
:101D600064002000440065006D006F00000000006A
:101D7000000000000000000000000000000005015D
:101D80000906A101050719E029E7150025017501DC
:101D9000950881029501750881039505750105086F
:101DA000190129059102950175039103950675089E
:101DB000150025650507190029658100C0F61C1866
:051DC0001D1C1D501D5B
:0A1DC600040120511F0B010801E089
:101DD0001200245101E01200060E215D21E1235181
:101DE000230A1BE0010A0CE0030A1AE10001610565
:101DF00017E10001080E716F1D0E726F090E09D0F8
:101E0000000161050DE100017E0E716F1D0E726F04
:101E10003F0E746F756BC00E02D00001800E736FA1
:101E200004012051600BE842E842E842E842E842FF
:101E3000010801E0120021510B0A2AE0080A1DE006
:101E4000090A15E0080A09E00B0A05E0080A01E0A2
:101E500012004EEF0FF04FEF0FF000019E0E716F6A
:101E6000000E726F010E746F756BC10E0FD0000102
:101E7000800E736F23C49EF0120000019F0E716FDD
:101E8000000E726F010E746F756B810E736F12000E
:101E90000001800E736F22C49FF012001200120026
:021EA00012002E
:0E1EA2002A0EF66E100EF76E000EF86E00019E
:101EB0000900F550996F0900F5509A6F03E1996791
:101EC00001D03DD00900F550946F0900F550956F91
:101ED0000900F550966F09000900F550E96E0900F8
:101EE000F550EA6E090009000900F550976F0900E6
:101EF000F550986F09000900F6CF9BF0F7CF9CF0E2
:101F0000F8CF9DF094C0F6FF95C0F7FF96C0F8FF9C
:101F10000001975302E1985307E00900F550EE6E77
:101F20009707F8E29807F9D79BC0F6FF9CC0F7FF28
:101F30009DC0F8FF00019907000E9A5BBFD7120001
:101F4000FE0EE3CFE9FFFF0EE3CFEAFFE9CFF3FF99
:101F5000EACFF4FFFB0EE35003E1FC0EE35009E08F
:101F6000FB0EE30602E2FC0EE306FD0EE350EE6E0E
:041F7000F1D7120093
:0C1F740013EE00F023EE00F0F86A049C6D
:101F800051EC0FF0CFEC0FF085EC0DF0FBD7120009
:0E1F900000EE00F00F0EEE6AEA62FDD71200BE
:021F9E0012002F
:031FA0000400003A
:020000040030CA
:0100000024DB
:010001000EF0
:010002003FBE
:010003001EDE
:010005008179
:010006008178
:010008000FE8
:01000900C036
:01000A000FE6
:01000B00E014
:01000C000FE4
:01000D0040B2
:00000001FF
