:020000040000FA
:0600000018EF0EF01200E3
:0600080004EF08F01200F5
:060018000CEF08F01200DD
:06082A0001000E100000A9
:080830008F0000000800000029
:080838006ADA1100D8CFE4FFD9
:10084000E0CFE4FFE46E63DAE550E5CFE0FFE5CF0B
:10085000D8FF1000D9CFE6FFE1CFD9FF2C0EE1265B
:10086000010EDB6A2A0EDB6A2B0EDB6AF00E956E38
:10087000010E936E030E926E010E836E80949B0E9A
:10088000E66EE66A3C0EE66E6DEC0DF0E552E55262
:10089000E55294D8010EC26E0E0EC16E840EC06E6B
:1008A0009EAA59D0B2EC0DF0E66ED950020F106E30
:1008B000DACF11F0010EDB500F011024E96E000EAB
:1008C000DA20EA6EE552E750EF6E010EDB2A050EE4
:1008D000F36E010EDBCFF4FFF350F45C3CE3010E4A
:1008E000DB6A040EDB5080082AE1F8D8000907E033
:1008F000AAD9800E07DA020E18DA838420D0FDD838
:10090000000907E0A0D9800EFDD9010E0EDA83861A
:1009100016D0C282C2B2FED7C450126E9FD92A0E20
:1009200008C0DBFF2B0E09C0DBFF8DD9820EEAD990
:100930002A0EDB50E76E190EE7CFDBFF0DDA040E4F
:10094000DB50810808E1839483967DD9810EDAD942
:10095000190EDB6A01DA46EC08F04DD8A1D7C0D9F0
:10096000DE6ADD6ADECF10F0DDCF11F0FB0EDBCFEB
:1009700012F0FC0EDBCF13F01050125C1150135824
:1009800017E3ACA2FED7FD0EDBCFE9FFFE0EDBCFF7
:10099000EAFFEF50E66EEBEC0DF0E552FD0EDB2AC0
:1009A000FE0E01E3DB2ADF2A010EDCE3DB2ADAD7C5
:1009B000020EE15C02E2E16AE55299D10F0EC1122A
:1009C0000FEC08F0E4EF04F0F00E95169388938A8C
:1009D0008150100B01E0010E0001976F8150200B38
:1009E00001E0010E986F0001906B916B926B936B1D
:1009F000010E946F120074D90001945101E0A9D83E
:100A0000200E0001605D64E36D50020B61E10001A6
:100A10009051911102E1000E08D090C0E9FF91C001
:100A2000EAFFEF50800B01E0010E000951E1410E99
:100A30000501025D31E152D8000908E05DD9410E9F
:100A4000076F020E086F3DD983841AD056D800096B
:100A500008E052D9410E076F030E086F32D9838622
:100A60000FD0C282C2B2FED7C450F8D808C0DEFF91
:100A700009C0DDFF41D9420E076FDFCF08F521D94C
:100A800000019251931102E1000E03D047D901E019
:100A9000010E000901E1FAD8440E0501025D16E1DC
:100AA00083948396AB0E056F010E066F440E076F9D
:100AB000086B07D900019251931102E1000E03D097
:100AC0002DD901E0010E000901E1E0D8050EECD8B6
:100AD000020EE15C02E2E16AE55209D18150100B9D
:100AE00001E0010E0001975D07E08150100B01E06D
:100AF000010E976F81A8010C000C8150200B01E0C2
:100B0000010E0001985D07E08150200B01E0010E0D
:100B1000986F81AA010C000CE3D89280010EC26E7E
:100B20003C0EC06EC08EC282C2B2FED7C350DF6E12
:100B3000010EC4CFDBFFDECF10F0DDCF11F010C00F
:100B4000F3FF11C0F4FF020EE15C02E2E16AE5523C
:100B5000CED000019551961104E1100E956F270E2D
:100B6000966F9507000E965B6DA207D09551961172
:100B70002EE1837083B013D027D00001605102E1D1
:100B8000839022D0600502E1838009D0020E605D6F
:100B900002E1838019D0040E605D03E183908382BB
:100BA0001200100E605D06E10001955196110FE1F3
:100BB00083700AD0200E605D0AE100019551961104
:100BC00006E1837083A002D0839212008382120018
:100BD0001200120012001200B1EF06F012001E0EF9
:100BE000E66E010EE66EFAEC0BF0E552E552400EB1
:100BF00054EF06F06D840001080E9B6F070E9C6F8A
:100C00009B07000E9C5B9B519C11FAE16D941200B6
:100C1000E552D880E754E552D880E754E76E1A0EC3
:100C2000E7CFDBFF8084050EE66EE66AD950160F2B
:100C3000E66E000EDA20E66E92DEE552E552E552EF
:100C4000E55280941200AB0EF36E160EF3CFDBFF6D
:100C5000010EF36E170EF3CFDBFF1200136A136E53
:100C6000126AC35000011224106E000E1320116E80
:100C7000040E0D6E0E6A10C008F011C009F0D5EC1C
:100C800007F008C010F009C011F01200050EE66E62
:100C9000050EE66E050EE66E010EE66E55D8F3CF34
:100CA00092F0F4CF93F01200E66E000EE66E050EA1
:100CB000E66EE66A010E48D8F3CF90F0F4CF91F0DB
:100CC00012000629E86CD8800755D8800855096FAE
:100CD0001200DBCFE6FF180EDBCFE6FF170E120087
:100CE000D9CFE6FFE1CFD9FF020EE1261200E16E77
:100CF000E552E7CFD9FF12000501AB0E056F010EDB
:100D0000066F1200F36E180EF3CFDBFF1200DACF7E
:100D1000E4FFE652E552E5CFDAFF120092C0E9FFA8
:100D200093C0EAFFEF50800B1200F36E190EF3CF61
:100D3000DBFFCFDFDBCFE6FF160EDB28E86CE552EA
:100D4000D880E75408EF06F0E66E2EEC0CF0106E3B
:100D5000050EE15E10501200BCDFDB28E86C08EFE6
:020D600006F09B
:0E0D6200040120511F0B010801E01200245172
:100D700001E01200060E215D21E12351230A1BE050
:100D8000010A0CE0030A1AE10001610517E1000104
:100D9000600E716F0E0E726F090E09D000016105B1
:100DA0000DE10001DF0E716F0E0E726F240E746F75
:100DB000756BC00E02D00001800E736F04012051CC
:100DC000600BE842E842E842E842E842010801E0FC
:100DD000120021510B0A2AE0080A1DE0090A15E059
:100DE000080A09E00B0A05E0080A01E012001CEFFE
:100DF00007F01DEF07F000019D0E716F000E726F7E
:100E0000010E746F756BC10E0FD00001800E736FF1
:100E100023C49DF0120000019E0E716F000E726FD0
:100E2000010E746F756B810E736F12000001800EDE
:0C0E3000736F22C49EF01200120012002A
:040E3C00120100029D
:100E400000000008D8043F0002000102000109026E
:100E50002900010100C03209040000020300000063
:100E6000092111010001222400070581034000012E
:100E70000705010340000104030904280354006529
:100E8000006D006100730065006B00200050006F72
:100E9000006C00790074006500630068006E0069F2
:100EA0000063003C03540065006D00700065007233
:100EB000006100740075007200650020004D006F35
:100EC000006E00690074006F00720069006E0067B8
:100ED000002000530079007300740065006D000667
:100EE000FFFF0901A10119012905150025FF75085A
:100EF0009505810219012905150025FF750895053D
:0B0F00009102C04E0E770E7B0EA30E78
:040F0C002A0EF66E45
:100F1000080EF76E000EF86E00010900F5508A6F9A
:100F20000900F5508B6F03E18A6701D03DD00900BD
:100F3000F550856F0900F550866F0900F550876FF1
:100F400009000900F550E96E0900F550EA6E090044
:100F500009000900F550886F0900F550896F0900F4
:100F60000900F6CF8CF0F7CF8DF0F8CF8EF085C06A
:100F7000F6FF86C0F7FF87C0F8FF0001885302E143
:100F8000895307E00900F550EE6E8807F8E28907FB
:100F9000F9D78CC0F6FF8DC0F7FF8EC0F8FF0001B7
:0A0FA0008A07000E8B5BBFD712001A
:060FAA00006A0EAEDEEF4E
:100FB00007F00D6C0E1EE86A0E22001E09AEE6EF69
:100FC00007F0086C091EE86A0922001E02EC0EF008
:100FD00009BEF6EF07F000AE000C086C091EE86AC7
:100FE0000922046C051EE86A0522000C00BEEDEF24
:060FF00007F00188FF0C70
:0610000018EF0EF01200D3
:021006001200D6
:061008001CEF04F01200D1
:02100E000000E0
:06101000000000010000D9
:061018001EEF04F01200BF
:02101E00D7EC0D
:101020000CF06A6A686A9F0E6B6EFB0E696E6D8CBF
:101030006D9C6E6ABBEC0CF0DF6AE8EC0CF010E221
:10104000DF50040DF3CFE9FFF4CFEAFF000EE926ED
:10105000040EEA22EE6AEE6AEE6AEE6ADF2AEDD745
:10106000160E706E68A604D0030E7DEC0CF0FAD755
:101070000001736B786B796B7A6B6D98080E6B6FF0
:10108000040E6C6F616B606BDAEF0CF0D7EC0CF058
:10109000000160510BE16D6A696A6DB602D06D8620
:1010A000FCD70001010E606F160E6F6E600508E13F
:1010B0006DBA06D0686A696A69806988020E606FD5
:1010C0006850040B04E06950040B01E067D86DB26E
:1010D0004CD06850010B11E06950010B0EE09FDF0E
:1010E0000001040E606F0401200E026F040E036FF6
:1010F000080E016F006B8C0E00136850100B07E098
:101100006950100B04E044D8040E7DEC0CF06850DC
:10111000400B08E06950400B05E0EAEC05F0060ED4
:101120007DEC0CF06850200B04E06950200B01E0CE
:101130001ED86850020B06E06950020B03E0EBEC8E
:1011400005F06A6A040E0001605D0FE369A60DD028
:10115000DF6A040EDF5C09E268A607D06CCF80F07E
:10116000030ECBDB25D8DF2AF4D7DAEF0CF070A022
:101170000CD0EADBEF50800807E1C9DBEF508408B0
:1011800003E1E2DB8C0EEF6E7090050E7DEF0CF04C
:101190006984040EB2DB6D82E8EF05F06D92E9EC34
:1011A00005F0699468A403D0020EA7DBFBD71200F8
:1011B000FD0E0001801519E17E0E8015E8407F0BC1
:1011C000040DF3CF63F0F4CF64F0000E6327040E38
:1011D000642363C065F064C066F0657547EC0DF08C
:1011E00002E1FBEF08F00CEF09F0FD0E801504089A
:1011F00001E11AD812008BDBEF50800B02E087DB95
:10120000EF6A00016F6B706B746B756B736B90D8CA
:10121000ECEC05F0C3EF0AF0020E0001705D02E194
:101220004DEF0BF040EF09F0C2DB71DBEF50400BEC
:1012300001E0010EDF6E00016B75080E605D09E1D3
:1012400022C46EFF6E50000802E2100E01D0040EA0
:10125000606F700513E139EC0DF0CDD9020E00017D
:101260006F5D03E154DB840E07D0DF5003E14FDBF9
:10127000C80E02D04CDB880EEF6E01D001D89AD395
:1012800034EC0DF0030EE126020E0001705D26E144
:101290006D50100B23E058DBEE52EF50106E116AC8
:1012A000080E10181BE1115019E147EC0DF016E182
:1012B000BCDBEF50800B12E1B8DBCADBDF6A88DBF6
:1012C00022E2DF508DDBDF50EA6A200FE96E040E68
:1012D000EA22E552E750EF6EDF2AF1D7706BBEDBF2
:1012E000EF6A040E6B19106E6CC011F0010E10C085
:1012F000DBFF020E6CC0DBFF010EDBCFE9FF020E4D
:10130000DBCFEAFFEF6A000178AF0CD07B517C1194
:1013100007E005D07CC0FAFF00017B51F96EFADFCF
:101320000001789F030EE15C02E2E16AE552FDD222
:1013300004012051600BE842E842E842E842E842FA
:10134000000901E0120021510C0A43E00B0A3FE0C2
:101350000C0A31E0010A22E00B0A1EE0020A1CE03E
:10136000030A18E0080A10E0010A0CE00F0A08E07E
:10137000030A01E012000001738F080E606F120073
:101380004AEF0AF0A6EF0BF00001610E716F000E3C
:10139000726F0CD085EF0AF0EAEF09F024510001DA
:1013A000716F726B620E7127000E72237381010ED2
:1013B000746F738F12000001738F04012451EA6A65
:1013C000620FE96E000EEA2222C4EFFF1200EEEF78
:1013D00005F0120049DB040EE1260401220510E1AC
:1013E00020511F0B00090CE10001738F030E040153
:1013F000215D04E10001010E7F6F02D000017F6BCF
:101400000401225141E120511F0B02083DE124510A
:101410000F0B000939E00001738F040124BF05D0D0
:1014200098DA670EE926000E04D093DA6B0EE926EF
:10143000000EC2DA030E215D03E16EDA840E23D0C2
:1014400024510F0B116A700F106E0F0E1122020E35
:1014500010C0DBFF030E11C0DBFF020EDBCFE9FF84
:10146000030EDBCFEAFFEE90ED5224AF06D054DA44
:10147000EF6ADF7451DA400E06D04EDA880EEF6E56
:10148000DF744ADAC80EEF6E040EE15C02E2E16A34
:10149000E5524BD2800E0401205D36E10001C00E02
:1014A000736F04012351030A1EE0010A09E0030AD5
:1014B00029E100013C0E716F0E0E726F120E1FD0EB
:1014C000A6DA030EF6260F0E93DA020E0001F76A73
:1014D0007125F66E7251F7220900F5CF74F00A00FB
:1014E000F5CF75F0120093DA050EF6260F0E80DAAE
:1014F00071C0F6FF72C0F7FF0800F5500001746F6D
:10150000756B12000001736B12000BDA0401286B7B
:10151000296B20511F0B020A11E0030A0CE0010A9B
:1015200022E10001738F0401288100017F051BE186
:101530000401288318D00001738F15D00001738F28
:10154000040124BF05D005DA670EE926000E04D099
:1015500000DA6B0EE926000E2FDADED9EF50040B0D
:1015600002E0010E286F000173AF07D0280E716FE3
:10157000040E726F7381020E746F020EE15C02E260
:10158000E16AE552D2D16D98000173BF07D078AF00
:1015900002D093DA28D062DA840E26D078BF2AD01F
:1015A000040120AF23D0000174510401265D000125
:1015B00075510401275904E226C474F027C475F05C
:1015C0001AD80001010E706F91D9B8D9800EEF6E54
:1015D000BBD9EE52080EEF6EB7D93ADAB5D9800E04
:1015E000EF6E47DA94D9C80EEF6E1200000165DA8B
:1015F000C80EEF6E120095D90001080E745D000E42
:1016000075590DE274C0DEFF75C0DDFF6F5102E158
:10161000010E03D06F0506E1020E6F6F03D0080EB6
:10162000DE6EDD6A74D9EF9272D9EF9070D9010E37
:10163000DB50EF126CD9EE52DFCFEFFF000EDB5024
:10164000745F010EDB50755B280E7D6F040E7E6F9C
:1016500073B10FD0E3D91BE071C0F6FF72C0F7FF82
:10166000712B000E72230800F5508ED9F3E2DB06D1
:10167000F1D7D4D90CE071C0E9FF72C0EAFF712B39
:10168000000E7223EF5080D9F4E2DB06F2D7020E8F
:10169000E15C02E2E16AE55248D143D955D9EE5204
:1016A000EFCFDFFFDFCF10F010500001795D000EAB
:1016B0007A5903E279C0DFFF09D0DF50106E116A5A
:1016C000E850795D796F11507A597A6F010EDB6AB3
:1016D000DF50F36E010EDBCFF4FFF350F45C10E249
:1016E000010EDB507DD976C0E9FF77C0EAFF762B8B
:1016F000000E7723E552E750EF6E010EDB2AE8D7A4
:10170000000ED8807955000E7A550CE2CFD91CD93D
:10171000EF50400B03E189D9C80E02D086D9880E5C
:10172000EF6E0ED082D994D97B517C1107E005D0A1
:101730007CC0FAFF00017B51F96EFADF0001789F4F
:10174000020EE15C02E2E16AE552EFD00001738F24
:1017500012D9010EE66EE66AE66A620EE66E000EC9
:101760009DD922C461F00401225104E10001100E50
:10177000606F12000001200E606FEFEF05F0D1D80E
:10178000000EDE6E040EDD6EECD8040DF350106E0C
:10179000116A020E0F0B05E0D89011321032E806E4
:1017A000FBE1D89010361136D89010361136D9CFCB
:1017B000E9FFDACFEAFF1050EE261150ED22ACD847
:1017C000EF9EFD0EDB5002E158D901D05BD9EA2231
:1017D000DECFEEFFDDCFEDFF9FD8EF9C9DD8040E4E
:1017E000E926000EEA22EF8C020EE15C02E2E16AD9
:1017F000E5529BD096D8FE0EDB50116A700F106E2A
:101800000F0EE0D8FD0EDB50E66E86D8E552E750AD
:10181000EE6EED6AFD0EDBA402D0E66AF1D8FD0E95
:10182000DBA203D0010EE66EEBD8020EE15C02E211
:10183000E16AE5527AD075D8FE0EDB5004E10ED98C
:10184000840EEF6E05D08DD8F5D88BD8010FF2D865
:10185000020EE15C02E2E16AE55267D062D8FD0E59
:10186000DB5002E00FD901D008D9A6D855D830D91D
:10187000FB0EDBCFEEFFFC0EDBCFEDFF4DD8EE52C3
:10188000FA0EDBCFEFFF400E47D8E850EF16880E78
:1018900043D8E850EF12FD0EDB5002E0F3D801D040
:1018A000ECD8EA22EF74DECF10F0DDCF11F010C0DB
:1018B000F3FF11C0F4FF020EE15C02E2E16AE552BF
:1018C00034D0D2D8010EF36EFC0EDB5004E0D89079
:1018D000F336E806FCE1F31C106EFD0EDBCFE9FFEA
:1018E000FE0EDBCFEAFF1050EF16E3D09ED8EE528B
:1018F000080EEF6E9AD868EF0DF0E66E680EE66E91
:101900000F0EE66EDEDFE552E552E55212006BC0C7
:10191000E9FF6CC0EAFF1200DECFE9FFDDCFEAFF8E
:101920001200A2D8020EE1261200E16EC2D0FE0E15
:10193000EA6ADB34FE0BEA36E96E1200200EEE6E28
:10194000040EED6E15EF0DF063C0E9FF64C0EAFF11
:10195000120024510F0BE96EEA6AD890E936EA3694
:101960001200FD0EDB50E824126EFE0EDB50040D5B
:10197000F35012241200000EE66EE66AE66A710E5B
:10198000E66E0F0E4EEF0DF0E66E7DC0E9FF7EC0F5
:10199000EAFF7D2B000E7E23E552E750EF6EDF0657
:1019A000010E1200280EEE6E040EED6E12005CD8D1
:1019B000E6521200E5527DD0EA22EECFDEFFEDCFF7
:1019C000DDFF1200112210C0DEFF11C0DDFF12008A
:1019D000DF50106E116A080E105C000E11581200D4
:1019E000EA6A280FE96E040EEA22EF50E66E120052
:1019F000F7220900F5CF71F00A00F5CF72F012005E
:101A0000FE0EDBCFE6FFBBDEE552E55212002251AF
:101A1000F66EF76AD890F636F7361200D9CFE9FF9E
:101A2000DACFEAFFEE50ED10120065C0E9FF66C0A4
:101A3000EAFF1200040DF3CF10F0F4CF11F0000E06
:101A40001026040EBFDF840E67DFE850EF1212008D
:101A50003FD8200EEE6E040EED6E120047DF6EDFF3
:101A60008C0EEF6E87EF0CF0D9CFE6FFE1CFD9FFF8
:101A700012004DDF2DD8D2EF0CF059DF670EE926AA
:101A8000000E120054DF6B0EE926000E12005CDF20
:101A9000EF503C0BE842E8420D081200E66ED1EC34
:101AA0000DF0106E050EE15E105012001FDFD2EF38
:101AB0000CF0E552E7CFD9FF1200020E706F27DF5E
:101AC000EE52EF6A24DFC80EEF6EF0DF15EF0DF077
:0A1AD000020EE926000EEA221200C1
:061ADA00D9CFE6FFDACFD0
:101AE000E6FFE1CFD9FFE2CFDAFFAC6AAB6AFD0EC9
:101AF000DBB0AC88DBA202D0AC8CAB8CDBB4AC8EA0
:101B0000DBA602D0AB8801D0AB8ADBB8AC849E9850
:101B1000DBBAAB86DBAC02D09D8A01D09D9A9E9A3F
:101B2000DBAE02D09D8801D09D98FB0EDB50AF6EDE
:101B3000FB0EFC0EDBCF11F011C010F0116A10503B
:101B4000B06EAC8AAB8E949C948EAC50100B04E0BB
:101B5000AC50800B01E1948CE552E5CFDAFFE7CF82
:041B6000D9FF120097
:0C1B6400D9CFE6FFDACFE6FFE1CFD9FFD2
:101B7000E2CFDAFFE652F20E0001A017ABAC03D0C1
:101B8000A091ABB0A081ABB4A085ABB2A087AE50A2
:101B9000DF6EDF50E552E552E5CFDAFFE7CFD9FF40
:021BA000120031
:0E1BA200FE0EE3CFE9FFFF0EE3CFEAFFE9CF2F
:101BB000F3FFEACFF4FFFB0EE35003E1FC0EE3502A
:101BC00009E0FB0EE30602E2FC0EE306FD0EE35025
:061BD000EE6EF1D71200D9
:0A1BD600D9CFE6FFDACFE6FFE1CF3A
:101BE000D9FFE2CFDAFFACAC04D0AC900001A0B3D7
:101BF000AC80FD0EDB50AD6EE552E5CFDAFFE7CFEE
:041C0000D9FF1200F6
:0C1C0400056A046A100EE76ED8900836DE
:101C10000936043605360D50045C0E50055805E3B0
:101C20000D50045E0E50055A082AE72EF0D7120018
:101C300013EE00F023EE00F0F86A019C86EC07F04A
:0C1C400003EC08F02AEC04F0FBD71200C3
:041C4C0000EE00F0B6
:0A1C50000F0EEE6AEA62FDD71200E3
:020000040030CA
:0100000024DB
:010001000EF0
:010002003FBE
:010003001EDE
:010005008179
:010006008178
:010008000FE8
:01000900C036
:01000A000FE6
:01000B00E014
:01000C000FE4
:01000D0040B2
:00000001FF
