:020000040000FA
:06000000A7EF06F012005C
:0600080004EF08F01200F5
:060018000CEF08F01200DD
:06082A0001006A0D000050
:080830009D0000000300000020
:08083800DACFE4FFE2CFDAFFA2
:10084000E652E552E5CFDAFF1100D8CFE4FFE0CF62
:10085000E4FFE46EDACFE4FFE2CFDAFFE652E552DE
:10086000E5CFDAFFE550E5CFE0FFE5CFD8FF100098
:1008700005D865EC08F022D8FCD712000F0EC11283
:100880000FEC08F044EF04F0F00E8C1695169388E8
:10089000938A8150100B01E0010E0001856F815099
:1008A000200B01E0010E866F8B6B8BC08AF08BC032
:1008B00089F0010E876F8C6B8D6B12008BD8200E28
:1008C0000001605D03E36D50020B01E00BD06FD8B7
:1008D000000907E00001875102E0000E01D0010E7F
:1008E000876F01D81200000187051EE188510E08AC
:1008F0001AE2896B070E00019D15F76A0E0FF66E5E
:10090000100EF7220800F5CF8AF0020E9D25070B86
:10091000F76A0E0FF66E100EF7220800F5CF8BF077
:100920009D2B0001886B05D08B6B8BC08AF08BC030
:1009300089F08C518D1102E1000E08D08CC0E9FFC6
:100940008DC0EAFFEF50800B01E0010E00091BE1B2
:1009500089C033F48AC034F48BC035F4030EE66EDC
:10096000330EE66E040EE66E010EE66EE66E44ECA5
:100970000FF0006E050EE15E0050F3CF8CF0F4CF67
:100980008DF00001882B12008150100B01E0010E48
:100990000001855D09E08150100B01E0010E856FBB
:1009A00081B802D0010E02D0000E00D0120081509A
:1009B000200B01E0010E0001865D09E08150200B53
:1009C00001E0010E866F81BA02D0010E02D0000E46
:1009D00000D0120000019E519F1104E1100E9E6F85
:1009E000270E9F6F9E07000E9F5B6DA20AD09E513F
:1009F0009F1106E18C708CA002D08C8201D08C9269
:100A00002ED00001605103E18C908C9228D06005BB
:100A100003E18C808C8223D0020E605D03E18C8028
:100A20008C921DD0040E605D03E18C908C8217D0F7
:100A3000100E605D07E100019E519F1102E18C7074
:100A40008C920DD0200E605D0AE100019E519F1135
:100A500006E18C708CA002D08C9201D08C821200A6
:100A600012001200120012004EEF05F012001A0ED2
:100A7000E66E010EE66E99EC0EF0E552E5521200BC
:100A80006D840001080E8E6F070E8F6F8E07000EAB
:0C0A90008F5B8E518F11FAE16D94120003
:040A9C0004012051E0
:100AA0001F0B010801E06DD0245101E06AD0060E51
:100AB000215D28E12351230A21E0010A11E0030A04
:100AC00001E020D0000161050AE10001AC0E716F68
:100AD0000B0E726F090E746F756BC00E736F12D0B0
:100AE000000161050AE10001220E716F0C0E726FA8
:100AF000320E746F756BC00E736F04D00001800EE0
:100B0000736F00D004012051600BE842E842E842D4
:100B1000E842E842010801E034D021510B0A2BE001
:100B2000080A1EE0090A16E0080A09E00B0A05E0B7
:100B3000080A01E026D026D824D025D822D00001EA
:100B40009A0E716F000E726F010E746F756BC10E8D
:100B5000736F17D00001800E736F23C49AF011D009
:100B600000019B0E716F000E726F010E746F756B3A
:100B7000810E736F06D00001800E736F22C49BF04C
:080B800000D012001200120067
:080B8800120100020000000848
:100B9000D804000003000102000109022200010143
:100BA00000C0320904000001030102000921110103
:100BB0000001223200070581030300010403090438
:100BC00034034D006900630072006F006300680029
:100BD00069007000200054006500630068006E002A
:100BE0006F006C006F0067007900200049006E0004
:100BF00063002E002E034D006F007500730065002A
:100C0000200049006E0020006100200043006900C0
:100C1000720063006C0065002000440065006D00F8
:100C20006F0005010902A1010901A10005091901CF
:100C300029031500250195037501810295017505AC
:100C400081010501093009311581257F750895025B
:0C0C50008106C0C09A0BBC0BC00BF40B5B
:040C5C002A0EF66EF8
:100C6000080EF76E000EF86E00010900F550956F42
:100C70000900F550966F03E1956701D03DD009005A
:100C8000F550906F0900F550916F0900F550926F83
:100C900009000900F550E96E0900F550EA6E0900F7
:100CA00009000900F550936F0900F550946F090091
:100CB0000900F6CF97F0F7CF98F0F8CF99F090C0F1
:100CC000F6FF91C0F7FF92C0F8FF0001935302E1D5
:100CD000945307E00900F550EE6E9307F8E294078D
:100CE000F9D797C0F6FF98C0F7FF99C0F8FF000149
:0A0CF0009507000E965BBFD71200B7
:060CFA00FE0EE3CFE9FF4E
:100D0000FF0EE3CFEAFFE9CFF3FFEACFF4FFFB0EDC
:100D1000E35003E1FC0EE35009E0FB0EE30602E2C0
:0E0D2000FC0EE306FD0EE350EE6EF1D712005E
:020D2E00000EB5
:100D3000F36E00EE00F0040E01D81200EA6002D05B
:0E0D4000EE6AFCD7F350E9601200EE6AFCD7B1
:020D4E0013EEA2
:100D500000F023EE00F0F86A049C2EEC06F003ECA1
:0A0D600008F038EC04F0FBD7120095
:030D6A0000000086
:06100000A7EF06F012004C
:021006001200D6
:061008001CEF04F01200D1
:02100E00FCFCE8
:06101000FC0004040400D2
:0610180025EF04F01200B8
:02101E00D9CF28
:10102000E6FFE1CFD9FFE6526A6A686A9F0E6B6EEF
:10103000FB0E696E6D8C6D9C6E6A000EE66EE66A44
:10104000E66A710EE66E0F0EE66E7DEC06F0006E3F
:10105000050EE15E0050DF6ADF50006E016A080E87
:10106000005C000E015810E2DF50040DF3CFE9FFE1
:10107000F4CFEAFF000EE926040EEA22EE6AEE6AD9
:10108000EE6AEE6ADF2AE8D7160E706E68A60CD0FC
:10109000030EE66E680EE66E0F0EE66EBDEC0FF008
:1010A000E552E552E552F2D70001736B786B796B2C
:1010B0007A6B6D98080E6B6F040E6C6F616B606BD2
:1010C000E552E552E7CFD9FF1200D9CFE6FFE1CFD5
:1010D000D9FFE6520001605111E105D06D6A696ADD
:1010E0000001606B86D06D6A696A6DB602D06D864C
:1010F000FCD70001010E606F160E6F6E600508E1EF
:101100006DBA06D0686A696A69806988020E606F84
:101110006850040B04E06950040B01E0A1D86DB2E3
:1011200068D06850010B11E06950010B0EE077DFC9
:101130000001040E606F0401200E026F040E036FA5
:10114000080E016F006B8C0E00136850100B0FE03F
:101150006950100B0CE075D8040EE66E680EE66E52
:101160000F0EE66EBDEC0FF0E552E552E552685009
:10117000400B10E06950400B0DE032EC05F0060E1C
:10118000E66E680EE66E0F0EE66EBDEC0FF0E552F1
:10119000E552E5526850200B04E06950200B01E055
:1011A0002DD86850020B06E06950020B03E033ECC7
:1011B00005F06A6A040E0001605D01E21AD069A6BA
:1011C00018D0DF6A040EDF5C14E268A60FD06CCF83
:1011D00080F0030EE66E680EE66E0F0EE66EBDEC56
:1011E0000FF0E552E552E5524ED801D002D0DF2A89
:1011F000E9D7E552E552E7CFD9FF120070A015D02C
:1012000063C0E9FF64C0EAFFEF5080080DE16BC0E6
:10121000E9FF6CC0EAFFEF50840806E163C0E9FF14
:1012200064C0EAFF8C0EEF6E7090050EE66E680EDD
:10123000E66E0F0EE66EBDEC0FF0E552E552E5529C
:1012400012006984040EE66E680EE66E0F0EE66EFE
:10125000BDEC0FF0E552E552E5526D8230EF05F03E
:101260006D9231EC05F0699468A40CD0020EE66E24
:10127000680EE66E0F0EE66EBDEC0FF0E552E5521D
:10128000E552F2D71200FD0E0001801520E17E0E1E
:101290008015E8407F0B040DF3CF63F0F4CF64F0CA
:1012A000000E6327040E642363C065F064C066F01B
:1012B000657563C0E9FF64C0EAFFEF503C0BE8428C
:1012C000E8420D0802E109D801D01ED805D0FD0E74
:1012D0008015040801E120D812006BC0E9FF6CC042
:1012E000EAFFEF50800B05E06BC0E9FF6CC0EAFF3E
:1012F000EF6A00016F6B706B746B756B736BF7D873
:1013000034EC05F014EF0CF0020E0001705D02E108
:10131000E8DB01D04ED81200D9CFE6FFE1CFD9FFEC
:10132000E6526BC0E9FF6CC0EAFFEF50400B01E0F2
:10133000010EDF6E00016B75080E605D0AE122C4CC
:101340006EFF6E50000803E2100E606F02D0040EB4
:10135000606F700528E16BC0E9FF6CC0EAFF020E08
:10136000E926000EEA22280EEE6E040EED6E2EDB4C
:10137000020E00016F5D07E16BC0E9FF6CC0EAFF80
:10138000840EEF6E0FD0DF5007E16BC0E9FF6CC039
:10139000EAFFC80EEF6E06D06BC0E9FF6CC0EAFF33
:1013A000880EEF6E01D005D8E552E552E7CFD9FFA0
:1013B0001200D9CFE6FFE1CFD9FF030EE126020EDE
:1013C0000001705D4AE16D50100B47E063C0E9FF1A
:1013D00064C0EAFFEE52EF50006E016A080E00187A
:1013E00001E101503AE163C0E9FF64C0EAFFEF5058
:1013F0003C0BE842E8420D0830E165C0E9FF66C0F9
:10140000EAFFEF50800B29E165C0E9FF66C0EAFF03
:10141000020EE926000EEA22200EEE6E040EED6E9C
:10142000DF6ADF50006E016A080E005C000E015892
:1014300013E2DF50EA6A280FE96E040EEA22EF5049
:10144000E66EDF50EA6A200FE96E040EEA22E552EA
:10145000E750EF6EDF2AE5D731D0706B65C0E9FF4A
:1014600066C0EAFFEE52080EEF6E65C0E9FF66C087
:10147000EAFF020EE926000EEA22200EEE6E040EAE
:10148000ED6E65C0E9FF66C0EAFF8C0EEF6E6BC0C3
:10149000E9FF6CC0EAFFEF6A040E6B19006E6CC0C6
:1014A00001F0010E00C0DBFF020E01C0DBFF010EE8
:1014B000DBCFE9FF020EDBCFEAFFEF6A000178AF76
:1014C0000CD07B517C1107E005D07CC0FAFF0001F5
:1014D0007B51F96EFADF0001789F030EE15C02E2B6
:1014E000E16AE552E16EE552E7CFD9FF120004014F
:1014F0002051600BE842E842E842E842E842000935
:1015000001E04CD021510C0A48E00B0A43E00C0AE0
:1015100035E0010A26E00B0A22E0020A20E0030A75
:101520001CE0080A10E0010A0CE00F0A08E0030AB8
:1015300001E033D00001738F080E606F2FD0BCD84C
:101540002DD060DB2BD00001610E716F000E726F29
:101550007381010E746F738F21D005D91FD01FD8EE
:101560001DD024510001716F726B620E7127000E45
:1015700072237381010E746F738F10D00001738F0B
:1015800004012451EA6A620FE96E000EEA2222C4C5
:10159000EFFF04D036EC05F001D000D01200D9CF17
:1015A000E6FFE1CFD9FF040EE1260401220510E198
:1015B00020511F0B00090CE10001738F030E040181
:1015C000215D04E10001010E7F6F02D000017F6BFD
:1015D0000401225167E120511F0B020863E12451ED
:1015E0000F0B00095FE00001738F040124BF10D0CE
:1015F00024510F0BE96EEA6AD890E936EA36670E95
:10160000E926000EEA22EECFDEFFEDCFDDFF0FD0A0
:1016100024510F0BE96EEA6AD890E936EA366B0E70
:10162000E926000EEA22EECFDEFFEDCFDDFF030E4E
:10163000215D07E1DECFE9FFDDCFEAFF840EEF6E2B
:1016400031D024510F0B016A700F006E0F0E012272
:10165000020E00C0DBFF030E01C0DBFF020EDBCF7A
:10166000E9FF030EDBCFEAFFEE90ED5224AF0DD081
:10167000DECFE9FFDDCFEAFFEF6ADF74DECFE9FFFF
:10168000DDCFEAFF400EEF6E0DD0DECFE9FFDDCFFC
:10169000EAFF880EEF6EDF74DECFE9FFDDCFEAFFF1
:1016A000C80EEF6E040EE15C02E2E16AE552E16E03
:1016B000E552E7CFD9FF1200800E0401205D52E110
:1016C0000001C00E736F04012351030A2EE0010ACA
:1016D0000EE0030A03E00001736B44D00001880EA2
:1016E000716F0B0E726F120E746F756B3BD02251BF
:1016F000F66EF76AD890F636F736540EF6260C0ECC
:10170000F7220900F5CF71F00A00F5CF72F0020E52
:101710000001F76A7125F66E7251F7220900F5CFC4
:1017200074F00A00F5CF75F01DD02251F66EF76AFD
:10173000D890F636F736560EF6260C0EF72209002C
:10174000F5CF71F00A00F5CF72F071C0F6FF72C0EC
:10175000F7FF0800F5500001746F756B02D00001AF
:10176000736B00D01200D9CFE6FFE1CFD9FF020E94
:10177000E1260401286B296B20511F0B020A12E09D
:10178000030A0DE0010A01E03BD00001738F040160
:10179000288100017F0502E10401288331D0000186
:1017A000738F2ED00001738F040124BF10D02451F9
:1017B0000F0BE96EEA6AD890E936EA36670EE92639
:1017C000000EEA22EECFDEFFEDCFDDFF0FD0245179
:1017D0000F0BE96EEA6AD890E936EA366B0EE92615
:1017E000000EEA22EECFDEFFEDCFDDFFDECFE9FF18
:1017F000DDCFEAFFEF50040B02E0010E286F00D0AE
:10180000000173AF07D0280E716F040E726F7381E1
:10181000020E746F020EE15C02E2E16AE552E16ED3
:10182000E552E7CFD9FF12006D98000173BF4AD08F
:1018300078AF28D0020E706F6BC0E9FF6CC0EAFF72
:10184000EE52EF6A6BC0E9FF6CC0EAFFC80EEF6EA4
:1018500065C0E9FF66C0EAFFEE52080EEF6E65C094
:10186000E9FF66C0EAFF020EE926000EEA22280E12
:10187000EE6E040EED6E65C0E9FF66C0EAFFC80EAD
:10188000EF6E1FD065C0E9FF66C0EAFFEE52080E9A
:10189000EF6E65C0E9FF66C0EAFF020EE926000EA2
:1018A000EA22200EEE6E040EED6E65C0E9FF66C002
:1018B000EAFF8C0EEF6E6BC0E9FF6CC0EAFF840E8E
:1018C000EF6E83D078BF81D0040120AF56D00001E5
:1018D00074510401265D000175510401275904E289
:1018E00026C474F027C475F071D80001010E706F22
:1018F00065C0E9FF66C0EAFFEE52080EEF6E65C0F4
:10190000E9FF66C0EAFF020EE926000EEA22200E79
:10191000EE6E040EED6E65C0E9FF66C0EAFF800E54
:10192000EF6E63C0E9FF64C0EAFFEE52080EEF6E8F
:1019300063C0E9FF64C0EAFF020EE926000EEA2256
:10194000200EEE6E040EED6E63C0E9FF64C0EAFF88
:10195000800EEF6E6BC0E9FF6CC0EAFF020EE92655
:10196000000EEA22280EEE6E040EED6E6BC0E9FF4B
:101970006CC0EAFFC80EEF6E28D00001020E706F37
:101980006BC0E9FF6CC0EAFFEE52EF6A6BC0E9FF83
:101990006CC0EAFFC80EEF6E65C0E9FF66C0EAFFE3
:1019A000EE52080EEF6E65C0E9FF66C0EAFF020E58
:1019B000E926000EEA22280EEE6E040EED6E65C0DA
:1019C000E9FF66C0EAFFC80EEF6E1200D9CFE6FF4E
:1019D000E1CFD9FF020EE1260001080E745D000E72
:1019E00075590EE274C0DEFF75C0DDFF6F5103E173
:1019F000010E6F6F04D06F0502E1020E6F6F03D00E
:101A0000080EDE6EDD6A6BC0E9FF6CC0EAFFEF9284
:101A10006BC0E9FF6CC0EAFFEF906BC0E9FF6CC0E0
:101A2000EAFF010EDB50EF126BC0E9FF6CC0EAFF6A
:101A3000EE52DFCFEFFF000EDB50745F010EDB5084
:101A4000755B280E7D6F040E7E6F73B121D0D9CFE8
:101A5000E9FFDACFEAFFEE50ED1019E071C0F6FFB2
:101A600072C0F7FF712B000E72230800F550E66E6E
:101A70007DC0E9FF7EC0EAFF7D2B000E7E23E5528C
:101A8000E750EF6EDF06010E01E2DB06E0D71FD064
:101A9000D9CFE9FFDACFEAFFEE50ED1018E071C0C0
:101AA000E9FF72C0EAFF712B000E7223EF50E66E61
:101AB0007DC0E9FF7EC0EAFF7D2B000E7E23E5524C
:101AC000E750EF6EDF06010E01E2DB06E1D7020E02
:101AD000E15C02E2E16AE552E16EE552E7CFD9FF4F
:101AE0001200D9CFE6FFE1CFD9FF020EE12663C095
:101AF000E9FF64C0EAFFEE52EFCFDFFFDFCF00F077
:101B000000500001795D000E7A5903E279C0DFFFD1
:101B100009D0DF50006E016A0050795D796F015085
:101B20007A597A6F010EDB6ADF50F36E010EDBCF5C
:101B3000F4FFF350F45C16E2010EDB50EA6A280F62
:101B4000E96E040EEA22EF50E66E76C0E9FF77C038
:101B5000EAFF762B000E7723E552E750EF6E010E79
:101B6000DB2AE2D7000ED8807955000E7A5528E29C
:101B700065C0E9FF66C0EAFFEE52080EEF6E65C071
:101B8000E9FF66C0EAFF020EE926000EEA22280EEF
:101B9000EE6E040EED6E63C0E9FF64C0EAFFEF5025
:101BA000400B07E165C0E9FF66C0EAFFC80EEF6EB3
:101BB00006D065C0E9FF66C0EAFF880EEF6E18D058
:101BC00065C0E9FF66C0EAFF020EE926000EEA22C0
:101BD000200EEE6E040EED6E7B517C1107E005D0F9
:101BE0007CC0FAFF00017B51F96EFADF0001789F9B
:101BF000020EE15C02E2E16AE552E16EE552E7CFF6
:101C0000D9FF12000001738F000EE66EE66AE66AE5
:101C1000710EE66E0F0EE66E7DEC06F0006E050EA0
:101C2000E15E0050010EE66EE66AE66A620EE66E5E
:101C3000000EE66E7DEC06F0006E050EE15E0050D3
:101C400022C461F00401225104E10001100E606F12
:101C500005D00001200E606F37EC05F01200D9CFDF
:101C6000E6FFE1CFD9FF020EE126000EDE6E040E84
:101C7000DD6EFD0EDB50E824026EFE0EDB50040D1F
:101C8000F3500224040DF350006E016A020E0F0B94
:101C900005E0D89001320032E806FBE1D89000362A
:101CA0000136D89000360136D9CFE9FFDACFEAFF06
:101CB0000050EE260150ED22DECFE9FFDDCFEAFF36
:101CC000EF9EFD0EDB500FE1FE0EEA6ADB34FE0BE9
:101CD000EA36E96E670EE926000EEA22DECFEEFF55
:101CE000DDCFEDFF0ED0FE0EEA6ADB34FE0BEA36E6
:101CF000E96E6B0EE926000EEA22DECFEEFFDDCFA5
:101D0000EDFFDECFE9FFDDCFEAFFEF9CDECFE9FF9D
:101D1000DDCFEAFF040EE926000EEA22EF8C020E68
:101D2000E15C02E2E16AE552E16EE552E7CFD9FFFC
:101D30001200D9CFE6FFE1CFD9FF020EE126FE0E59
:101D4000DB50016A700F006E0F0E012200C0DEFF33
:101D500001C0DDFFFD0EDB50E66EDECFE9FFDDCF1B
:101D6000EAFFE552E750EE6EED6AFD0EDBA407D008
:101D7000E66AFE0EDBCFE6FF72DFE552E552FD0EAE
:101D8000DBA208D0010EE66EFE0EDBCFE6FF67DFBA
:101D9000E552E552020EE15C02E2E16AE552E16ED3
:101DA000E552E7CFD9FF1200D9CFE6FFE1CFD9FF47
:101DB000020EE126FE0EDB5020E165C0E9FF66C0A1
:101DC000EAFFEE52080EEF6E65C0E9FF66C0EAFF5B
:101DD000020EE926000EEA22200EEE6E040EED6ED3
:101DE00065C0E9FF66C0EAFF8C0EEF6E6BC0E9FFCD
:101DF0006CC0EAFF840EEF6E3DD0FD0EDB50E82490
:101E0000026EFE0EDB50040DF3500224040DF3CFDE
:101E100000F0F4CF01F0000E0026040E012200C0F5
:101E2000DEFF01C0DDFF840E006EDECFE9FFDDCFF7
:101E3000EAFF0050EF12FD0EDB50E824026EFE0EAA
:101E4000DB50040DF3500224010F040DF3CF00F01A
:101E5000F4CF01F0000E0026040E012200C0DEFFC8
:101E600001C0DDFF840E006EDECFE9FFDDCFEAFFAB
:101E70000050EF12020EE15C02E2E16AE552E16E0F
:101E8000E552E7CFD9FF1200D9CFE6FFE1CFD9FF66
:101E9000020EE126FD0EDB500FE0FE0EEA6ADB3497
:101EA000FE0BEA36E96E6B0EE926000EEA22EECF53
:101EB000DEFFEDCFDDFF0ED0FE0EEA6ADB34FE0B57
:101EC000EA36E96E670EE926000EEA22EECFDEFF63
:101ED000EDCFDDFFDECFE9FFDDCFEAFF020EE92621
:101EE000000EEA22FB0EDBCFEEFFFC0EDBCFEDFF98
:101EF000DECFE9FFDDCFEAFFEE52FA0EDBCFEFFFD8
:101F0000400E006EDECFE9FFDDCFEAFF0050EF1696
:101F1000880E006EDECFE9FFDDCFEAFF0050EF1242
:101F2000FD0EDB500CE0FE0EEA6ADB34FE0BEA36F7
:101F3000E96E6B0EE926000EEA22EF740BD0FE0E5E
:101F4000EA6ADB34FE0BEA36E96E670EE926000E1C
:101F5000EA22EF74DECF00F0DDCF01F000C0F3FF26
:101F600001C0F4FF020EE15C03E200D0E16AE55239
:101F7000E16EE552E7CFD9FF1200D9CFE6FFE1CFFE
:101F8000D9FF010EF36EFC0EDB5004E0D890F3365F
:101F9000E806FCE1F350E81C006EFD0EDBCFE9FF24
:101FA000FE0EDBCFEAFF0050EF16E552E7CFD9FF78
:021FB00012001D
:020000040030CA
:0100000024DB
:010001000EF0
:010002003FBE
:010003001EDE
:010005008179
:010006008178
:010008000FE8
:01000900C036
:01000A000FE6
:01000B00E014
:01000C000FE4
:01000D0040B2
:00000001FF
