:020000040000FA
:0600000010EF12F01200E7
:0600080004EF08F01200F5
:060018000CEF08F01200DD
:0610000010EF12F01200D7
:06100800A6EF0FF012003C
:06101800ADEF0FF0120025
:06102A0001003E2400005D
:08103000A10000000300000014
:08103800D9CFE6FFE1CFD9FF9B
:10104000E6526A6A686A9F0E6B6EFB0E696E6D8C63
:101050006D9C6E6A000EE66EE66AE66A710EE66EDA
:101060000F0EE66EE6EC11F0006E050EE15E00502C
:10107000DF6ADF50006E016A080E005C000E015846
:1010800010E2DF50040DF3CFE9FFF4CFEAFF000ECA
:10109000E926040EEA22EE6AEE6AEE6AEE6ADF2ABA
:1010A000E8D7160E706E68A60CD0030EE66E680EBA
:1010B000E66E0F0EE66E8BEC0FF0E552E552E55250
:1010C000F2D70001736B786B796B7A6B6D98080EB1
:1010D0006B6F040E6C6F616B606BE552E552E7CF8E
:1010E000D9FF1200D9CFE6FFE1CFD9FFE6520001C8
:1010F00060510BE16D6A696A6DB602D06D86FCD7EE
:101100000001010E606F160E6F6E600508E16DBA8A
:1011100006D0686A696A69806988020E606F6850E3
:10112000040B04E06950040B01E09ED86DB265D059
:101130006850010B11E06950010B0EE07DDF0001EA
:10114000040E606F0401200E026F040E036F080E80
:10115000016F006B8C0E00136850100B0FE069508C
:10116000100B0CE072D8040EE66E680EE66E0F0EE1
:10117000E66E8BEC0FF0E552E552E5526850400BFD
:1011800010E06950400B0DE09DEC10F0060EE66E8D
:10119000680EE66E0F0EE66E8BEC0FF0E552E55230
:1011A000E5526850200B04E06950200B01E02AD87A
:1011B0006850020B06E06950020B03E09EEC10F051
:1011C0006A6A040E0001605D18E369A616D0DF6A42
:1011D000040EDF5C12E268A610D06CCF80F0030E24
:1011E000E66E680EE66E0F0EE66E8BEC0FF0E552C3
:1011F000E552E5524CD8DF2AEBD7E552E552E7CF6E
:10120000D9FF120070A015D063C0E9FF64C0EAFFE7
:10121000EF5080080DE16BC0E9FF6CC0EAFFEF50B2
:10122000840806E163C0E9FF64C0EAFF8C0EEF6E3C
:101230007090050EE66E680EE66E0F0EE66E8BEC95
:101240000FF0E552E552E55212006984040EE66E95
:10125000680EE66E0F0EE66E8BEC0FF0E552E5526F
:10126000E5526D829BEF10F06D929CEC10F069944A
:1012700068A40CD0020EE66E680EE66E0F0EE66EE7
:101280008BEC0FF0E552E552E552F2D71200FD0E5D
:101290000001801520E17E0E8015E8407F0B040DD3
:1012A000F3CF63F0F4CF64F0000E6327040E6423E1
:1012B00063C065F064C066F0657563C0E9FF64C033
:1012C000EAFFEF503C0BE842E8420D0802E171EF03
:1012D00009F088EF09F0FD0E8015040801E120D81F
:1012E00012006BC0E9FF6CC0EAFFEF50800B05E015
:1012F0006BC0E9FF6CC0EAFFEF6A00016F6B706BB7
:10130000746B756B736BF3D89FEC10F0FAEF0BF006
:10131000020E0001705D02E152EF0DF0DAEF09F00C
:10132000D9CFE6FFE1CFD9FFE6526BC0E9FF6CC031
:10133000EAFFEF50400B01E0010EDF6E00016B751C
:10134000080E605D09E122C46EFF6E50000802E2E3
:10135000100E01D0040E606F700526E16BC0E9FF2E
:101360006CC0EAFF020EE926000EEA22280EEE6E9D
:10137000040EED6E0EDB020E00016F5D06E16BC028
:10138000E9FF6CC0EAFF840E0DD0DF5006E16BC0B0
:10139000E9FF6CC0EAFFC80E05D06BC0E9FF6CC066
:1013A000EAFF880EEF6E01D005D8E552E552E7CF8F
:1013B000D9FF1200D9CFE6FFE1CFD9FF030EE12616
:1013C000020E0001705D49E16D50100B46E063C0F4
:1013D000E9FF64C0EAFFEE52EF50006E016A080EAA
:1013E00000183BE1015039E163C0E9FF64C0EAFF46
:1013F000EF503C0BE842E8420D082FE165C0E9FFE1
:1014000066C0EAFFEF50800B28E165C0E9FF66C0C7
:10141000EAFF020EE926000EEA22200EEE6E040E0E
:10142000ED6EDF6ADF50006E016A080E005C000E90
:10143000015844E2DF50EA6A280FE96E040EEA22FE
:10144000EF50E66EDF50EA6A200FE96E040EEA22E2
:10145000E552E750EF6EDF2AE5D7706B65C0E9FF14
:1014600066C0EAFFEE52080EEF6E65C0E9FF66C087
:10147000EAFF020EE926000EEA22200EEE6E040EAE
:10148000ED6E65C0E9FF66C0EAFF8C0EEF6E6BC0C3
:10149000E9FF6CC0EAFFEF6A040E6B19006E6CC0C6
:1014A00001F0010E00C0DBFF020E6CC0DBFF010E7D
:1014B000DBCFE9FF020EDBCFEAFFEF6A000178AF76
:1014C0000CD07B517C1107E005D07CC0FAFF0001F5
:1014D0007B51F96EFADF0001789F030EE15C02E2B6
:1014E000E16AE552E16EE552E7CFD9FF120004014F
:1014F0002051600BE842E842E842E842E842000935
:1015000001E0120021510C0A43E00B0A3FE00C0AF3
:1015100031E0010A22E00B0A1EE0020A1CE0030A85
:1015200018E0080A10E0010A0CE00F0A08E0030ABC
:1015300001E012000001738F080E606F12004FEF80
:101540000BF0E2EF0DF00001610E716F000E726F93
:101550000CD0A0EF0BF0C9EF0AF024510001716F1D
:10156000726B620E7127000E72237381010E746F0D
:10157000738F12000001738F04012451EA6A620F15
:10158000E96E000EEA2222C4EFFF1200A1EF10F074
:101590001200D9CFE6FFE1CFD9FF040EE126040106
:1015A000220510E120511F0B00090CE10001738F8F
:1015B000030E0401215D04E10001010E7F6F02D0E2
:1015C00000017F6B0401225160E120511F0B0208D2
:1015D0005CE124510F0B000958E00001738F0401F6
:1015E00024BF0BD024510F0BE96EEA6AD890E9367C
:1015F000EA36670EE926000E0AD024510F0BE96E79
:10160000EA6AD890E936EA366B0EE926000EEA223D
:10161000EECFDEFFEDCFDDFF030E215D06E1DECF75
:10162000E9FFDDCFEAFF840E2FD024510F0B016AB2
:10163000700F006E0F0E0122020E00C0DBFF030EC2
:1016400001C0DBFF020EDBCFE9FF030EDBCFEAFFB9
:10165000EE90ED5224AF0CD0DECFE9FFDDCFEAFFF4
:10166000EF6ADF74DECFE9FFDDCFEAFF400E0CD07A
:10167000DECFE9FFDDCFEAFF880EEF6EDF74DECF4D
:10168000E9FFDDCFEAFFC80EEF6E040EE15C02E277
:10169000E16AE552E16EE552E7CFD9FF1200800E14
:1016A0000401205D4CE10001C00E736F0401235161
:1016B000030A29E0010A09E0030A3FE10001720E72
:1016C000716F210E726F120E35D02251F66EF76ACD
:1016D000D890F636F7364B0EF626220EF722090082
:1016E000F5CF71F00A00F5CF72F0020E0001F76A33
:1016F0007125F66E7251F7220900F5CF74F00A00D9
:10170000F5CF75F012002251F66EF76AD890F636D2
:10171000F7364D0EF626220EF7220900F5CF71F0AE
:101720000A00F5CF72F071C0F6FF72C0F7FF080033
:10173000F5500001746F756B12000001736B12009D
:10174000D9CFE6FFE1CFD9FF020EE1260401286BD5
:10175000296B20511F0B020A11E0030A0CE0010A59
:1017600035E10001738F0401288100017F052EE11E
:10177000040128832BD00001738F28D00001738FC0
:10178000040124BF0BD024510F0BE96EEA6AD890F4
:10179000E936EA36670EE926000E0AD024510F0B0F
:1017A000E96EEA6AD890E936EA366B0EE926000E51
:1017B000EA22EECFDEFFEDCFDDFFDECFE9FFDDCFAA
:1017C000EAFFEF50040B02E0010E286F000173AF37
:1017D00007D0280E716F040E726F7381020E746F42
:1017E000020EE15C02E2E16AE552E16EE552E7CF0A
:1017F000D9FF12006D98000173BF47D078AF26D093
:10180000020E706F6BC0E9FF6CC0EAFFEE52EF6A28
:101810006BC0E9FF6CC0EAFFC80EEF6E65C0E9FF60
:1018200066C0EAFFEE52080EEF6E65C0E9FF66C0C3
:10183000EAFF020EE926000EEA22280EEE6E040EE2
:10184000ED6E65C0E9FF66C0EAFF77D065C0E9FFCD
:1018500066C0EAFFEE52080EEF6E65C0E9FF66C093
:10186000EAFF020EE926000EEA22200EEE6E040EBA
:10187000ED6E65C0E9FF66C0EAFF8C0EEF6E6BC0CF
:10188000E9FF6CC0EAFF840E59D078BF81D0040113
:1018900020AF56D0000174510401265D000175513E
:1018A0000401275904E226C474F027C475F071D8E6
:1018B0000001010E706F65C0E9FF66C0EAFFEE52DD
:1018C000080EEF6E65C0E9FF66C0EAFF020EE9266A
:1018D000000EEA22200EEE6E040EED6E65C0E9FFEA
:1018E00066C0EAFF800EEF6E63C0E9FF64C0EAFFE6
:1018F000EE52080EEF6E63C0E9FF64C0EAFF020E0D
:10190000E926000EEA22200EEE6E040EED6E63C094
:10191000E9FF64C0EAFF800EEF6E6BC0E9FF6CC0A8
:10192000EAFF020EE926000EEA22280EEE6E040EF1
:10193000ED6E6BC0E9FF6CC0EAFFC80EEF6E1200DF
:101940000001020E706F6BC0E9FF6CC0EAFFEE523F
:10195000EF6A6BC0E9FF6CC0EAFFC80EEF6E65C0AE
:10196000E9FF66C0EAFFEE52080EEF6E65C0E9FFC0
:1019700066C0EAFF020EE926000EEA22280EEE6E8D
:10198000040EED6E65C0E9FF66C0EAFFC80EEF6E9B
:101990001200D9CFE6FFE1CFD9FF020EE126000108
:1019A000080E745D000E75590DE274C0DEFF75C03F
:1019B000DDFF6F5102E1010E03D06F0506E1020E5B
:1019C0006F6F03D0080EDE6EDD6A6BC0E9FF6CC07E
:1019D000EAFFEF926BC0E9FF6CC0EAFFEF906BC0CB
:1019E000E9FF6CC0EAFF010EDB50EF126BC0E9FFAC
:1019F0006CC0EAFFEE52DFCFEFFF000EDB50745FEA
:101A0000010EDB50755B280E7D6F040E7E6F73B187
:101A100020D0D9CFE9FFDACFEAFFEE50ED1038E061
:101A200071C0F6FF72C0F7FF712B000E7223080021
:101A3000F550E66E7DC0E9FF7EC0EAFF7D2B000E0B
:101A40007E23E552E750EF6EDF06010EE2E2DB0691
:101A5000E0D7D9CFE9FFDACFEAFFEE50ED1018E07A
:101A600071C0E9FF72C0EAFF712B000E7223EF50C4
:101A7000E66E7DC0E9FF7EC0EAFF7D2B000E7E236F
:101A8000E552E750EF6EDF06010EE3E2DB06E1D739
:101A9000020EE15C02E2E16AE552E16EE552E7CF57
:101AA000D9FF1200D9CFE6FFE1CFD9FF020EE12620
:101AB00063C0E9FF64C0EAFFEE52EFCFDFFFDFCF84
:101AC00000F000500001795D000E7A5903E279C000
:101AD000DFFF09D0DF50006E016AE850795D796F51
:101AE00001507A597A6F010EDB6ADF50F36E010EF6
:101AF000DBCFF4FFF350F45C16E2010EDB50EA6A30
:101B0000280FE96E040EEA22EF50E66E76C0E9FF78
:101B100077C0EAFF762B000E7723E552E750EF6E91
:101B2000010EDB2AE2D7000ED8807955000E7A55D7
:101B300027E265C0E9FF66C0EAFFEE52080EEF6ECD
:101B400065C0E9FF66C0EAFF020EE926000EEA2240
:101B5000280EEE6E040EED6E63C0E9FF64C0EAFF6E
:101B6000EF50400B06E165C0E9FF66C0EAFFC80E12
:101B700005D065C0E9FF66C0EAFF880EEF6E18D099
:101B800065C0E9FF66C0EAFF020EE926000EEA2200
:101B9000200EEE6E040EED6E7B517C1107E005D039
:101BA0007CC0FAFF00017B51F96EFADF0001789FDB
:101BB000020EE15C02E2E16AE552E16EE552E7CF36
:101BC000D9FF12000001738F000EE66EE66AE66A26
:101BD000710EE66E0F0EE66EE6EC11F0006E050E6D
:101BE000E15E0050010EE66EE66AE66A620EE66E9F
:101BF000000EE66EE6EC11F0006E050EE15E0050A0
:101C000022C461F00401225104E10001100E606F52
:101C100012000001200E606FA2EF10F0D9CFE6FF96
:101C2000E1CFD9FF020EE126000EDE6E040EDD6E5E
:101C3000FD0EDB50E824026EFE0EDB50040DF35067
:101C40000224040DF350006E016A020E0F0B05E032
:101C5000D89001320032E806FBE1D8900036013618
:101C6000D89000360136D9CFE9FFDACFEAFF00502D
:101C7000EE260150ED22DECFE9FFDDCFEAFFEF9E39
:101C8000FD0EDB500AE1FE0EEA6ADB34FE0BEA369B
:101C9000E96E670EE926000E09D0FE0EEA6ADB3413
:101CA000FE0BEA36E96E6B0EE926000EEA22DECF65
:101CB000EEFFDDCFEDFFDECFE9FFDDCFEAFFEF9CEA
:101CC000DECFE9FFDDCFEAFF040EE926000EEA22AF
:101CD000EF8C020EE15C02E2E16AE552E16EE55250
:101CE000E7CFD9FF1200D9CFE6FFE1CFD9FF020E2F
:101CF000E126FE0EDB50016A700F006E0F0E01220E
:101D000000C0DEFF01C0DDFFFD0EDB50E66EDECF62
:101D1000E9FFDDCFEAFFE552E750EE6EED6AFD0E1A
:101D2000DBA407D0E66AFE0EDBCFE6FF77DFE552E5
:101D3000E552FD0EDBA208D0010EE66EFE0EDBCFF3
:101D4000E6FF6CDFE552E552020EE15C02E2E16A79
:101D5000E552E16EE552E7CFD9FF1200D9CFE6FF99
:101D6000E1CFD9FF020EE126FE0EDB5020E165C077
:101D7000E9FF66C0EAFFEE52080EEF6E65C0E9FFAC
:101D800066C0EAFF020EE926000EEA22200EEE6E81
:101D9000040EED6E65C0E9FF66C0EAFF8C0EEF6EC3
:101DA0006BC0E9FF6CC0EAFF840EEF6E3BD0FD0E06
:101DB000DB50E824026EFE0EDB50040DF3500224CB
:101DC000040DF3CF00F0F4CF01F0000E0026040E56
:101DD000012200C0DEFF01C0DDFF840EDECFE9FF7F
:101DE000DDCFEAFFE850EF12FD0EDB50E824026E73
:101DF000FE0EDB50040DF3500224010F040DF3CF4F
:101E000000F0F4CF01F0000E0026040E012200C005
:101E1000DEFF01C0DDFF840EDECFE9FFDDCFEAFF8C
:101E2000E850EF12020EE15C02E2E16AE552E16E77
:101E3000E552E7CFD9FF1200D9CFE6FFE1CFD9FFB6
:101E4000020EE126FD0EDB500AE0FE0EEA6ADB34EC
:101E5000FE0BEA36E96E6B0EE926000E09D0FE0E87
:101E6000EA6ADB34FE0BEA36E96E670EE926000EFD
:101E7000EA22EECFDEFFEDCFDDFFDECFE9FFDDCFE3
:101E8000EAFF020EE926000EEA22FB0EDBCFEEFF90
:101E9000FC0EDBCFEDFFDECFE9FFDDCFEAFFEE5238
:101EA000FA0EDBCFEFFF400EDECFE9FFDDCFEAFF1A
:101EB000E850EF16880EDECFE9FFDDCFEAFFE850ED
:101EC000EF12FD0EDB500AE0FE0EEA6ADB34FE0B79
:101ED000EA36E96E6B0EE926000E09D0FE0EEA6ABC
:101EE000DB34FE0BEA36E96E670EE926000EEA22C5
:101EF000EF74DECF00F0DDCF01F000C0F3FF01C0D2
:101F0000F4FF020EE15C02E2E16AE552E16EE552A5
:101F1000E7CFD9FF1200D9CFE6FFE1CFD9FF010EFD
:101F2000F36EFC0EDB5004E0D890F336E806FCE1DB
:101F3000F31C006EFD0EDBCFE9FFFE0EDBCFEAFFE8
:0C1F40000050EF16E552E7CFD9FF120069
:041F4C00DACFE4FF05
:101F5000E652E552E5CFDAFF1100D8CFE4FFE0CF3B
:101F6000E4FFE46EDACFE4FFE652E552E5CFDAFFB4
:101F7000E550E5CFE0FFE5CFD8FF100004D872ECC4
:101F800008F01AD8FCD70F0EC1121CEC08F0C9EFEC
:101F90000FF0F00E8C1695169388938A8150100BD3
:101FA00001E0010E0001856F8150200B01E0010E60
:101FB000866F8F6B906B12007FD8200E0001605DE2
:101FC00005E36D50020B01E0120001D81200000180
:101FD0008F51901102E1000E08D08FC0E9FF90C030
:101FE000EAFFEF50800B01E0010E000946E146D800
:101FF000000927E00401336B346B0001A151A12BD0
:102000000401356F366B376B386B396B3A6B080EE2
:10201000E66E330EE66E040EE66E010EE66EE66EBA
:102020001CEC0FF0006E050EE15E0050F3CF8FF058
:10203000F4CF90F0280E0001A15D1FE1040EA16F06
:1020400012000401336B346B356B366B376B386BB6
:10205000396B3A6B080EE66E330EE66E040EE66ED2
:10206000010EE66EE66E1CEC0FF0006E050EE15EF2
:102070000050F3CF8FF0F4CF90F012008150100B8E
:1020800001E0010E0001855D07E08150100B01E0C9
:10209000010E856F81A8010C000C8150200B01E01E
:1020A000010E0001865D07E08150200B01E0010E6A
:1020B000866F81AA010C000C0001A251A31104E15A
:1020C000100EA26F270EA36FA207000EA35B6DA2D6
:1020D00007D0A251A3112EE18C708CB013D027D061
:1020E0000001605102E18C9022D0600502E18C80F9
:1020F00009D0020E605D02E18C8019D0040E605D93
:1021000003E18C908C821200100E605D06E10001EC
:10211000A251A3110FE18C700AD0200E605D0AE17C
:102120000001A251A31106E18C708CA002D08C9208
:1021300012008C82120012001200120012002AEF0C
:1021400011F012001A0EE66E010EE66E73EC0EF040
:10215000E552E55212006D840001080E926F070EE1
:10216000936F9207000E935B92519311FAE16D9475
:0221700012005B
:0E2172001201000200000008D8045500010010
:102180000102000109022200010100C0320904001D
:10219000000103010100092111010001223F000794
:1021A0000581030800010403090434034D0069009C
:1021B000630072006F006300680069007000200017
:1021C00054006500630068006E006F006C006F00D3
:1021D00067007900200049006E0063002E002E0386
:1021E0004B006500790062006F00610072006400BE
:1021F0002000440065006D006F000000000000003A
:1022000000000000000000000000000005010906B9
:10221000A101050719E029E71500250175019508B9
:10222000810295017508810395057501050819015D
:10223000290591029501750391039506750815000E
:1022400025650507190029658100C08421A621AAFA
:0322500021DE216B
:0C225400040120511F0B010801E01200E2
:10226000245101E01200060E215D21E12351230AD1
:102270001BE0010A0CE0030A1AE10001610517E105
:102280000001960E716F210E726F090E09D00001C8
:1022900061050DE100010C0E716F220E726F3F0E91
:1022A000746F756BC00E02D00001800E736F040155
:1022B0002051600BE842E842E842E842E842010867
:1022C00001E0120021510B0A2AE0080A1DE0090A68
:1022D00015E0080A09E00B0A05E0080A01E012000F
:1022E00095EF11F096EF11F000019E0E716F000E48
:1022F000726F010E746F756BC10E0FD00001800EEE
:10230000736F23C49EF0120000019F0E716F000EC8
:10231000726F010E746F756B810E736F1200000186
:0E232000800E736F22C49FF012001200120094
:02232E002A0E75
:10233000F66E100EF76E000EF86E00010900F550F3
:10234000996F0900F5509A6F03E1996701D03DD06C
:102350000900F550946F0900F550956F0900F5508C
:10236000966F09000900F550E96E0900F550EA6E14
:10237000090009000900F550976F0900F550986FA2
:1023800009000900F6CF9BF0F7CF9CF0F8CF9DF045
:1023900094C0F6FF95C0F7FF96C0F8FF0001975371
:1023A00002E1985307E00900F550EE6E9707F8E256
:1023B0009807F9D79BC0F6FF9CC0F7FF9DC0F8FFB8
:0C23C00000019907000E9A5BBFD71200C5
:0423CC00FE0EE3CF4F
:1023D000E9FFFF0EE3CFEAFFE9CFF3FFEACFF4FF17
:1023E000FB0EE35003E1FC0EE35009E0FB0EE306B5
:1023F00002E2FC0EE306FD0EE350EE6EF1D7120092
:10240000000EF36E00EE00F0040E01D81200EA6038
:1024100002D0EE6AFCD7F350E9601200EE6AFCD7F6
:1024200013EE00F023EE00F0F86A049C97EC11F034
:0C2430001EEC12F0BEEC0FF0FBD7120007
:02243C0012008C
:02243E00040098
:01244000009B
:020000040030CA
:0100000024DB
:010001000EF0
:010002003FBE
:010003001EDE
:010005008179
:010006008178
:010008000FE8
:01000900C036
:01000A000FE6
:01000B00E014
:01000C000FE4
:01000D0040B2
:00000001FF
